{
  "contractName": "MySmartContract",
  "abi": [
    {
      "constant": true,
      "inputs": [],
      "name": "hasClosed",
      "outputs": [
        {
          "name": "",
          "type": "bool"
        }
      ],
      "payable": false,
      "stateMutability": "view",
      "type": "function"
    },
    {
      "constant": true,
      "inputs": [],
      "name": "initialized",
      "outputs": [
        {
          "name": "",
          "type": "bool"
        }
      ],
      "payable": false,
      "stateMutability": "view",
      "type": "function"
    },
    {
      "constant": true,
      "inputs": [
        {
          "name": "",
          "type": "address"
        }
      ],
      "name": "balances",
      "outputs": [
        {
          "name": "",
          "type": "uint256"
        }
      ],
      "payable": false,
      "stateMutability": "view",
      "type": "function"
    },
    {
      "constant": true,
      "inputs": [],
      "name": "rate",
      "outputs": [
        {
          "name": "",
          "type": "uint256"
        }
      ],
      "payable": false,
      "stateMutability": "view",
      "type": "function"
    },
    {
      "constant": true,
      "inputs": [],
      "name": "cap",
      "outputs": [
        {
          "name": "",
          "type": "uint256"
        }
      ],
      "payable": false,
      "stateMutability": "view",
      "type": "function"
    },
    {
      "constant": true,
      "inputs": [],
      "name": "goal",
      "outputs": [
        {
          "name": "",
          "type": "uint256"
        }
      ],
      "payable": false,
      "stateMutability": "view",
      "type": "function"
    },
    {
      "constant": true,
      "inputs": [],
      "name": "weiRaised",
      "outputs": [
        {
          "name": "",
          "type": "uint256"
        }
      ],
      "payable": false,
      "stateMutability": "view",
      "type": "function"
    },
    {
      "constant": true,
      "inputs": [],
      "name": "closingTime",
      "outputs": [
        {
          "name": "",
          "type": "uint256"
        }
      ],
      "payable": false,
      "stateMutability": "view",
      "type": "function"
    },
    {
      "constant": false,
      "inputs": [],
      "name": "finalize",
      "outputs": [],
      "payable": false,
      "stateMutability": "nonpayable",
      "type": "function"
    },
    {
      "constant": true,
      "inputs": [],
      "name": "tokensForEcosystem",
      "outputs": [
        {
          "name": "",
          "type": "uint256"
        }
      ],
      "payable": false,
      "stateMutability": "view",
      "type": "function"
    },
    {
      "constant": true,
      "inputs": [],
      "name": "capReached",
      "outputs": [
        {
          "name": "",
          "type": "bool"
        }
      ],
      "payable": false,
      "stateMutability": "view",
      "type": "function"
    },
    {
      "constant": true,
      "inputs": [],
      "name": "wallet",
      "outputs": [
        {
          "name": "",
          "type": "address"
        }
      ],
      "payable": false,
      "stateMutability": "view",
      "type": "function"
    },
    {
      "constant": true,
      "inputs": [],
      "name": "totalTokensForSale",
      "outputs": [
        {
          "name": "",
          "type": "uint256"
        }
      ],
      "payable": false,
      "stateMutability": "view",
      "type": "function"
    },
    {
      "constant": true,
      "inputs": [],
      "name": "tokensForBounty",
      "outputs": [
        {
          "name": "",
          "type": "uint256"
        }
      ],
      "payable": false,
      "stateMutability": "view",
      "type": "function"
    },
    {
      "constant": true,
      "inputs": [],
      "name": "startTime",
      "outputs": [
        {
          "name": "",
          "type": "uint256"
        }
      ],
      "payable": false,
      "stateMutability": "view",
      "type": "function"
    },
    {
      "constant": true,
      "inputs": [],
      "name": "goalReached",
      "outputs": [
        {
          "name": "",
          "type": "bool"
        }
      ],
      "payable": false,
      "stateMutability": "view",
      "type": "function"
    },
    {
      "constant": true,
      "inputs": [],
      "name": "isFinalized",
      "outputs": [
        {
          "name": "",
          "type": "bool"
        }
      ],
      "payable": false,
      "stateMutability": "view",
      "type": "function"
    },
    {
      "constant": true,
      "inputs": [],
      "name": "owner",
      "outputs": [
        {
          "name": "",
          "type": "address"
        }
      ],
      "payable": false,
      "stateMutability": "view",
      "type": "function"
    },
    {
      "constant": true,
      "inputs": [],
      "name": "totalWeiRaisedDuringPreICO",
      "outputs": [
        {
          "name": "",
          "type": "uint256"
        }
      ],
      "payable": false,
      "stateMutability": "view",
      "type": "function"
    },
    {
      "constant": false,
      "inputs": [],
      "name": "claimRefund",
      "outputs": [],
      "payable": false,
      "stateMutability": "nonpayable",
      "type": "function"
    },
    {
      "constant": true,
      "inputs": [],
      "name": "openingTime",
      "outputs": [
        {
          "name": "",
          "type": "uint256"
        }
      ],
      "payable": false,
      "stateMutability": "view",
      "type": "function"
    },
    {
      "constant": true,
      "inputs": [],
      "name": "totalTokensForSaleDuringPreICO",
      "outputs": [
        {
          "name": "",
          "type": "uint256"
        }
      ],
      "payable": false,
      "stateMutability": "view",
      "type": "function"
    },
    {
      "constant": true,
      "inputs": [],
      "name": "stage",
      "outputs": [
        {
          "name": "",
          "type": "uint8"
        }
      ],
      "payable": false,
      "stateMutability": "view",
      "type": "function"
    },
    {
      "constant": true,
      "inputs": [],
      "name": "maxTokens",
      "outputs": [
        {
          "name": "",
          "type": "uint256"
        }
      ],
      "payable": false,
      "stateMutability": "view",
      "type": "function"
    },
    {
      "constant": false,
      "inputs": [
        {
          "name": "_beneficiary",
          "type": "address"
        }
      ],
      "name": "buyTokens",
      "outputs": [],
      "payable": true,
      "stateMutability": "payable",
      "type": "function"
    },
    {
      "constant": true,
      "inputs": [],
      "name": "period",
      "outputs": [
        {
          "name": "",
          "type": "uint256"
        }
      ],
      "payable": false,
      "stateMutability": "view",
      "type": "function"
    },
    {
      "constant": false,
      "inputs": [
        {
          "name": "newOwner",
          "type": "address"
        }
      ],
      "name": "transferOwnership",
      "outputs": [],
      "payable": false,
      "stateMutability": "nonpayable",
      "type": "function"
    },
    {
      "constant": true,
      "inputs": [],
      "name": "vault",
      "outputs": [
        {
          "name": "",
          "type": "address"
        }
      ],
      "payable": false,
      "stateMutability": "view",
      "type": "function"
    },
    {
      "constant": true,
      "inputs": [],
      "name": "token",
      "outputs": [
        {
          "name": "",
          "type": "address"
        }
      ],
      "payable": false,
      "stateMutability": "view",
      "type": "function"
    },
    {
      "constant": true,
      "inputs": [],
      "name": "tokensForTeam",
      "outputs": [
        {
          "name": "",
          "type": "uint256"
        }
      ],
      "payable": false,
      "stateMutability": "view",
      "type": "function"
    },
    {
      "inputs": [
        {
          "name": "_openingTime",
          "type": "uint256"
        },
        {
          "name": "_closingTime",
          "type": "uint256"
        },
        {
          "name": "_rate",
          "type": "uint256"
        },
        {
          "name": "_wallet",
          "type": "address"
        },
        {
          "name": "_goal",
          "type": "uint256"
        },
        {
          "name": "_cap",
          "type": "uint256"
        }
      ],
      "payable": false,
      "stateMutability": "nonpayable",
      "type": "constructor"
    },
    {
      "payable": true,
      "stateMutability": "payable",
      "type": "fallback"
    },
    {
      "anonymous": false,
      "inputs": [
        {
          "indexed": false,
          "name": "text",
          "type": "string"
        }
      ],
      "name": "EthTransferred",
      "type": "event"
    },
    {
      "anonymous": false,
      "inputs": [
        {
          "indexed": false,
          "name": "text",
          "type": "string"
        }
      ],
      "name": "EthRefunded",
      "type": "event"
    },
    {
      "anonymous": false,
      "inputs": [
        {
          "indexed": true,
          "name": "to",
          "type": "address"
        },
        {
          "indexed": false,
          "name": "value",
          "type": "uint256"
        }
      ],
      "name": "BoughtTokens",
      "type": "event"
    },
    {
      "anonymous": false,
      "inputs": [],
      "name": "Finalized",
      "type": "event"
    },
    {
      "anonymous": false,
      "inputs": [
        {
          "indexed": true,
          "name": "previousOwner",
          "type": "address"
        },
        {
          "indexed": true,
          "name": "newOwner",
          "type": "address"
        }
      ],
      "name": "OwnershipTransferred",
      "type": "event"
    },
    {
      "anonymous": false,
      "inputs": [
        {
          "indexed": true,
          "name": "purchaser",
          "type": "address"
        },
        {
          "indexed": true,
          "name": "beneficiary",
          "type": "address"
        },
        {
          "indexed": false,
          "name": "value",
          "type": "uint256"
        },
        {
          "indexed": false,
          "name": "amount",
          "type": "uint256"
        }
      ],
      "name": "TokenPurchase",
      "type": "event"
    },
    {
      "constant": false,
      "inputs": [],
      "name": "initialize",
      "outputs": [],
      "payable": false,
      "stateMutability": "nonpayable",
      "type": "function"
    },
    {
      "constant": false,
      "inputs": [
        {
          "name": "_stage",
          "type": "uint8"
        }
      ],
      "name": "setCrowdsaleStage",
      "outputs": [],
      "payable": false,
      "stateMutability": "nonpayable",
      "type": "function"
    },
    {
      "constant": false,
      "inputs": [],
      "name": "isActive",
      "outputs": [
        {
          "name": "",
          "type": "bool"
        }
      ],
      "payable": false,
      "stateMutability": "nonpayable",
      "type": "function"
    },
    {
      "constant": false,
      "inputs": [
        {
          "name": "_teamFund",
          "type": "address"
        },
        {
          "name": "_ecosystemFund",
          "type": "address"
        },
        {
          "name": "_bountyFund",
          "type": "address"
        }
      ],
      "name": "finish",
      "outputs": [],
      "payable": false,
      "stateMutability": "nonpayable",
      "type": "function"
    }
  ],
  "bytecode": "0x60606040526000600760146101000a81548160ff0219169083151502179055506000600f60156101000a81548160ff02191690831515021790555062000044620005a8565b604051809103906000f08015156200005b57600080fd5b601060006101000a81548173ffffffffffffffffffffffffffffffffffffffff021916908373ffffffffffffffffffffffffffffffffffffffff1602179055506000601060146101000a81548160ff02191690836001811115620000bb57fe5b02179055506322f0b3c060115562af79e060125563057a486060135563036d61606014556317fa9c606015556301fa9780601655600060175534156200010057600080fd5b60405160c080620042d383398101604052808051906020019091908051906020019091908051906020019091908051906020019091908051906020019091908051906020019091905050818686838787601060009054906101000a900473ffffffffffffffffffffffffffffffffffffffff166000831115156200018357600080fd5b600073ffffffffffffffffffffffffffffffffffffffff168273ffffffffffffffffffffffffffffffffffffffff1614151515620001c057600080fd5b600073ffffffffffffffffffffffffffffffffffffffff168173ffffffffffffffffffffffffffffffffffffffff1614151515620001fd57600080fd5b8260028190555081600160006101000a81548173ffffffffffffffffffffffffffffffffffffffff021916908373ffffffffffffffffffffffffffffffffffffffff160217905550806000806101000a81548173ffffffffffffffffffffffffffffffffffffffff021916908373ffffffffffffffffffffffffffffffffffffffff1602179055505050506000811115156200029857600080fd5b8060048190555050428210151515620002b057600080fd5b818110151515620002c057600080fd5b8160058190555080600681905550505033600760006101000a81548173ffffffffffffffffffffffffffffffffffffffff021916908373ffffffffffffffffffffffffffffffffffffffff1602179055506000811115156200032157600080fd5b600160009054906101000a900473ffffffffffffffffffffffffffffffffffffffff166200034e620005b9565b808273ffffffffffffffffffffffffffffffffffffffff1673ffffffffffffffffffffffffffffffffffffffff168152602001915050604051809103906000f08015156200039b57600080fd5b600960006101000a81548173ffffffffffffffffffffffffffffffffffffffff021916908373ffffffffffffffffffffffffffffffffffffffff160217905550806008819055505085600b8190555084600d8190555083600e819055506200041860006200043f64010000000002620010ee176401000000009004565b6000600f60146101000a81548160ff021916908315150217905550505050505050620005ca565b600760009054906101000a900473ffffffffffffffffffffffffffffffffffffffff1673ffffffffffffffffffffffffffffffffffffffff163373ffffffffffffffffffffffffffffffffffffffff161415156200049c57600080fd5b80601060146101000a81548160ff02191690836001811115620004bb57fe5b021790555060006001811115620004ce57fe5b601060149054906101000a900460ff166001811115620004ea57fe5b141562000530576200052a650e8d4a510000670de0b6b3a76400008115156200050f57fe5b046200059e64010000000002620016a1176401000000009004565b6200059b565b6001808111156200053d57fe5b601060149054906101000a900460ff1660018111156200055957fe5b14156200059a57620005996514eb1ad47000670de0b6b3a76400008115156200057e57fe5b046200059e64010000000002620016a1176401000000009004565b5b5b50565b80600e8190555050565b6040516118958062001fc783390190565b604051610a77806200385c83390190565b6119ed80620005da6000396000f3006060604052600436106101ac576000357c0100000000000000000000000000000000000000000000000000000000900463ffffffff1680631515bc2b146101b7578063158ef93e146101e457806322f3e2d41461021157806327e235e31461023e5780632c4e722e1461028b578063355274ea146102b457806340193883146102dd5780634042b66f146103065780634b6753bc1461032f5780634bb278f3146103585780634c4cfc3b1461036d5780634f93594514610396578063521eb273146103c357806360219c7b14610418578063644280e21461044157806378e979251461046a5780637d3d6522146104935780637e02bb0f146104c05780638129fc1c146105375780638d4e40831461054c5780638da5cb5b14610579578063abe8014a146105ce578063b5545a3c146105f7578063b7a8807c1461060c578063c02aaea114610635578063c040e6b81461065e578063d1ed833814610695578063e8315742146106bb578063ec8ac4d8146106e4578063ef78d4fd14610712578063f2fde38b1461073b578063fbfa77cf14610774578063fc0c546a146107c9578063fde83a341461081e575b6101b533610847565b005b34156101c257600080fd5b6101ca610915565b604051808215151515815260200191505060405180910390f35b34156101ef57600080fd5b6101f7610921565b604051808215151515815260200191505060405180910390f35b341561021c57600080fd5b610224610934565b604051808215151515815260200191505060405180910390f35b341561024957600080fd5b610275600480803573ffffffffffffffffffffffffffffffffffffffff16906020019091905050610964565b6040518082815260200191505060405180910390f35b341561029657600080fd5b61029e61097c565b6040518082815260200191505060405180910390f35b34156102bf57600080fd5b6102c7610982565b6040518082815260200191505060405180910390f35b34156102e857600080fd5b6102f0610988565b6040518082815260200191505060405180910390f35b341561031157600080fd5b61031961098e565b6040518082815260200191505060405180910390f35b341561033a57600080fd5b610342610994565b6040518082815260200191505060405180910390f35b341561036357600080fd5b61036b61099a565b005b341561037857600080fd5b610380610a76565b6040518082815260200191505060405180910390f35b34156103a157600080fd5b6103a9610a7c565b604051808215151515815260200191505060405180910390f35b34156103ce57600080fd5b6103d6610a8b565b604051808273ffffffffffffffffffffffffffffffffffffffff1673ffffffffffffffffffffffffffffffffffffffff16815260200191505060405180910390f35b341561042357600080fd5b61042b610ab1565b6040518082815260200191505060405180910390f35b341561044c57600080fd5b610454610ab7565b6040518082815260200191505060405180910390f35b341561047557600080fd5b61047d610abd565b6040518082815260200191505060405180910390f35b341561049e57600080fd5b6104a6610ac3565b604051808215151515815260200191505060405180910390f35b34156104cb57600080fd5b610535600480803573ffffffffffffffffffffffffffffffffffffffff1690602001909190803573ffffffffffffffffffffffffffffffffffffffff1690602001909190803573ffffffffffffffffffffffffffffffffffffffff16906020019091905050610ad2565b005b341561054257600080fd5b61054a610ef4565b005b341561055757600080fd5b61055f610f8f565b604051808215151515815260200191505060405180910390f35b341561058457600080fd5b61058c610fa2565b604051808273ffffffffffffffffffffffffffffffffffffffff1673ffffffffffffffffffffffffffffffffffffffff16815260200191505060405180910390f35b34156105d957600080fd5b6105e1610fc8565b6040518082815260200191505060405180910390f35b341561060257600080fd5b61060a610fce565b005b341561061757600080fd5b61061f6110cf565b6040518082815260200191505060405180910390f35b341561064057600080fd5b6106486110d5565b6040518082815260200191505060405180910390f35b341561066957600080fd5b6106716110db565b6040518082600181111561068157fe5b60ff16815260200191505060405180910390f35b34156106a057600080fd5b6106b9600480803560ff169060200190919050506110ee565b005b34156106c657600080fd5b6106ce611216565b6040518082815260200191505060405180910390f35b610710600480803573ffffffffffffffffffffffffffffffffffffffff16906020019091905050610847565b005b341561071d57600080fd5b61072561121c565b6040518082815260200191505060405180910390f35b341561074657600080fd5b610772600480803573ffffffffffffffffffffffffffffffffffffffff16906020019091905050611222565b005b341561077f57600080fd5b61078761137a565b604051808273ffffffffffffffffffffffffffffffffffffffff1673ffffffffffffffffffffffffffffffffffffffff16815260200191505060405180910390f35b34156107d457600080fd5b6107dc6113a0565b604051808273ffffffffffffffffffffffffffffffffffffffff1673ffffffffffffffffffffffffffffffffffffffff16815260200191505060405180910390f35b341561082957600080fd5b6108316113c5565b6040518082815260200191505060405180910390f35b60008034915061085783836113cb565b610860826113f8565b90506108778260035461159090919063ffffffff16565b60038190555061088783826115ae565b8273ffffffffffffffffffffffffffffffffffffffff163373ffffffffffffffffffffffffffffffffffffffff167f623b3804fa71d67900d064613da8f94b9617215ee90799290593e1745087ad188484604051808381526020018281526020019250505060405180910390a36108fe83836115bc565b6109066115c0565b6109108383611693565b505050565b60006006544211905090565b600f60159054906101000a900460ff1681565b6000600d544210801561095257506000151561094e610ac3565b1515145b801561095f5750600b5442115b905090565b600a6020528060005260406000206000915090505481565b60025481565b60045481565b60085481565b60035481565b60065481565b600760009054906101000a900473ffffffffffffffffffffffffffffffffffffffff1673ffffffffffffffffffffffffffffffffffffffff163373ffffffffffffffffffffffffffffffffffffffff161415156109f657600080fd5b600760149054906101000a900460ff16151515610a1257600080fd5b610a1a610915565b1515610a2557600080fd5b610a2d611697565b7f6823b073d48d6e3a7d385eeb601452d680e74bb46afe3255a7d778f3a9b1768160405160405180910390a16001600760146101000a81548160ff021916908315150217905550565b60125481565b60006004546003541015905090565b600160009054906101000a900473ffffffffffffffffffffffffffffffffffffffff1681565b60155481565b60145481565b600b5481565b60006008546003541015905090565b600080600760009054906101000a900473ffffffffffffffffffffffffffffffffffffffff1673ffffffffffffffffffffffffffffffffffffffff163373ffffffffffffffffffffffffffffffffffffffff16141515610b3157600080fd5b600f60149054906101000a900460ff16151515610b4d57600080fd5b601060009054906101000a900473ffffffffffffffffffffffffffffffffffffffff1673ffffffffffffffffffffffffffffffffffffffff166318160ddd6000604051602001526040518163ffffffff167c0100000000000000000000000000000000000000000000000000000000028152600401602060405180830381600087803b1515610bdb57600080fd5b6102c65a03f11515610bec57600080fd5b50505060405180519050915060115482101515610c0857600080fd5b816015540390506000811115610c245780601254016012819055505b601060009054906101000a900473ffffffffffffffffffffffffffffffffffffffff1673ffffffffffffffffffffffffffffffffffffffff1663a9059cbb866013546000604051602001526040518363ffffffff167c0100000000000000000000000000000000000000000000000000000000028152600401808373ffffffffffffffffffffffffffffffffffffffff1673ffffffffffffffffffffffffffffffffffffffff16815260200182815260200192505050602060405180830381600087803b1515610cf357600080fd5b6102c65a03f11515610d0457600080fd5b5050506040518051905050601060009054906101000a900473ffffffffffffffffffffffffffffffffffffffff1673ffffffffffffffffffffffffffffffffffffffff1663a9059cbb856012546000604051602001526040518363ffffffff167c0100000000000000000000000000000000000000000000000000000000028152600401808373ffffffffffffffffffffffffffffffffffffffff1673ffffffffffffffffffffffffffffffffffffffff16815260200182815260200192505050602060405180830381600087803b1515610dde57600080fd5b6102c65a03f11515610def57600080fd5b5050506040518051905050601060009054906101000a900473ffffffffffffffffffffffffffffffffffffffff1673ffffffffffffffffffffffffffffffffffffffff1663a9059cbb846014546000604051602001526040518363ffffffff167c0100000000000000000000000000000000000000000000000000000000028152600401808373ffffffffffffffffffffffffffffffffffffffff1673ffffffffffffffffffffffffffffffffffffffff16815260200182815260200192505050602060405180830381600087803b1515610ec957600080fd5b6102c65a03f11515610eda57600080fd5b5050506040518051905050610eed61099a565b5050505050565b600760009054906101000a900473ffffffffffffffffffffffffffffffffffffffff1673ffffffffffffffffffffffffffffffffffffffff163373ffffffffffffffffffffffffffffffffffffffff16141515610f5057600080fd5b60001515600f60159054906101000a900460ff161515141515610f7257600080fd5b6001600f60156101000a81548160ff021916908315150217905550565b600760149054906101000a900460ff1681565b600760009054906101000a900473ffffffffffffffffffffffffffffffffffffffff1681565b60175481565b600760149054906101000a900460ff161515610fe957600080fd5b610ff1610ac3565b151515610ffd57600080fd5b600960009054906101000a900473ffffffffffffffffffffffffffffffffffffffff1673ffffffffffffffffffffffffffffffffffffffff1663fa89401a336040518263ffffffff167c0100000000000000000000000000000000000000000000000000000000028152600401808273ffffffffffffffffffffffffffffffffffffffff1673ffffffffffffffffffffffffffffffffffffffff168152602001915050600060405180830381600087803b15156110b957600080fd5b6102c65a03f115156110ca57600080fd5b505050565b60055481565b60165481565b601060149054906101000a900460ff1681565b600760009054906101000a900473ffffffffffffffffffffffffffffffffffffffff1673ffffffffffffffffffffffffffffffffffffffff163373ffffffffffffffffffffffffffffffffffffffff1614151561114a57600080fd5b80601060146101000a81548160ff0219169083600181111561116857fe5b02179055506000600181111561117a57fe5b601060149054906101000a900460ff16600181111561119557fe5b14156111c2576111bd650e8d4a510000670de0b6b3a76400008115156111b757fe5b046116a1565b611213565b6001808111156111ce57fe5b601060149054906101000a900460ff1660018111156111e957fe5b1415611212576112116514eb1ad47000670de0b6b3a764000081151561120b57fe5b046116a1565b5b5b50565b60115481565b600c5481565b600760009054906101000a900473ffffffffffffffffffffffffffffffffffffffff1673ffffffffffffffffffffffffffffffffffffffff163373ffffffffffffffffffffffffffffffffffffffff1614151561127e57600080fd5b600073ffffffffffffffffffffffffffffffffffffffff168173ffffffffffffffffffffffffffffffffffffffff16141515156112ba57600080fd5b8073ffffffffffffffffffffffffffffffffffffffff16600760009054906101000a900473ffffffffffffffffffffffffffffffffffffffff1673ffffffffffffffffffffffffffffffffffffffff167f8be0079c531659141344cd1fd0a4f28419497f9722a3daafe3b4186f6b6457e060405160405180910390a380600760006101000a81548173ffffffffffffffffffffffffffffffffffffffff021916908373ffffffffffffffffffffffffffffffffffffffff16021790555050565b600960009054906101000a900473ffffffffffffffffffffffffffffffffffffffff1681565b6000809054906101000a900473ffffffffffffffffffffffffffffffffffffffff1681565b60135481565b60055442101580156113df57506006544211155b15156113ea57600080fd5b6113f482826116ab565b5050565b600080600061141284600e546116de90919063ffffffff16565b9150600090506000600181111561142557fe5b601060149054906101000a900460ff16600181111561144057fe5b1415611574576202a300600b5401421115156114845761147d603261146f60648561171990919063ffffffff16565b6116de90919063ffffffff16565b9050611573565b6203f480600b540142101580156114a1575062054600600b540142105b156114d4576114cd60286114bf60648561171990919063ffffffff16565b6116de90919063ffffffff16565b9050611572565b62069780600b540142101580156114f157506207e900600b540142105b156115245761151d601e61150f60648561171990919063ffffffff16565b6116de90919063ffffffff16565b9050611571565b62093a80600b540142101580156115415750620a8c00600b540142105b156115705761156d601461155f60648561171990919063ffffffff16565b6116de90919063ffffffff16565b90505b5b5b5b5b611587818361159090919063ffffffff16565b92505050919050565b60008082840190508381101515156115a457fe5b8091505092915050565b6115b88282611734565b5050565b5050565b600960009054906101000a900473ffffffffffffffffffffffffffffffffffffffff1673ffffffffffffffffffffffffffffffffffffffff1663f340fa0134336040518363ffffffff167c0100000000000000000000000000000000000000000000000000000000028152600401808273ffffffffffffffffffffffffffffffffffffffff1673ffffffffffffffffffffffffffffffffffffffff1681526020019150506000604051808303818588803b151561167c57600080fd5b6125ee5a03f1151561168d57600080fd5b50505050565b5050565b61169f611820565b565b80600e8190555050565b6116b5828261196f565b6004546116cd8260035461159090919063ffffffff16565b111515156116da57600080fd5b5050565b60008060008414156116f35760009150611712565b828402905082848281151561170457fe5b0414151561170e57fe5b8091505b5092915050565b600080828481151561172757fe5b0490508091505092915050565b6000809054906101000a900473ffffffffffffffffffffffffffffffffffffffff1673ffffffffffffffffffffffffffffffffffffffff1663a9059cbb83836000604051602001526040518363ffffffff167c0100000000000000000000000000000000000000000000000000000000028152600401808373ffffffffffffffffffffffffffffffffffffffff1673ffffffffffffffffffffffffffffffffffffffff16815260200182815260200192505050602060405180830381600087803b151561180057600080fd5b6102c65a03f1151561181157600080fd5b50505060405180519050505050565b611828610ac3565b156118cb57600960009054906101000a900473ffffffffffffffffffffffffffffffffffffffff1673ffffffffffffffffffffffffffffffffffffffff166343d726d66040518163ffffffff167c0100000000000000000000000000000000000000000000000000000000028152600401600060405180830381600087803b15156118b257600080fd5b6102c65a03f115156118c357600080fd5b505050611965565b600960009054906101000a900473ffffffffffffffffffffffffffffffffffffffff1673ffffffffffffffffffffffffffffffffffffffff16638c52dc416040518163ffffffff167c0100000000000000000000000000000000000000000000000000000000028152600401600060405180830381600087803b151561195057600080fd5b6102c65a03f1151561196157600080fd5b5050505b61196d6119bf565b565b600073ffffffffffffffffffffffffffffffffffffffff168273ffffffffffffffffffffffffffffffffffffffff16141515156119ab57600080fd5b600081141515156119bb57600080fd5b5050565b5600a165627a7a72305820a5aca6854bbea38c1004dabe00ca7f74c36f332d59cefbeff024f2799280ff11002960606040526000600360146101000a81548160ff0219169083151502179055506322f0b3c0600455341561003257600080fd5b33600360006101000a81548173ffffffffffffffffffffffffffffffffffffffff021916908373ffffffffffffffffffffffffffffffffffffffff1602179055506004546001819055506004546000803373ffffffffffffffffffffffffffffffffffffffff1673ffffffffffffffffffffffffffffffffffffffff168152602001908152602001600020819055506117c5806100d06000396000f3006060604052600436106100f1576000357c0100000000000000000000000000000000000000000000000000000000900463ffffffff16806305d2035b146100f657806306fdde0314610123578063095ea7b3146101b157806318160ddd1461020b57806323b872dd146102345780632ff2e9dc146102ad578063313ce567146102d657806340c10f191461030b578063661884631461036557806370a08231146103bf5780637d64bcb41461040c5780638da5cb5b1461043957806395d89b411461048e578063a9059cbb1461051c578063d73dd62314610576578063dd62ed3e146105d0578063f2fde38b1461063c575b600080fd5b341561010157600080fd5b610109610675565b604051808215151515815260200191505060405180910390f35b341561012e57600080fd5b610136610688565b6040518080602001828103825283818151815260200191508051906020019080838360005b8381101561017657808201518184015260208101905061015b565b50505050905090810190601f1680156101a35780820380516001836020036101000a031916815260200191505b509250505060405180910390f35b34156101bc57600080fd5b6101f1600480803573ffffffffffffffffffffffffffffffffffffffff169060200190919080359060200190919050506106c1565b604051808215151515815260200191505060405180910390f35b341561021657600080fd5b61021e6107b3565b6040518082815260200191505060405180910390f35b341561023f57600080fd5b610293600480803573ffffffffffffffffffffffffffffffffffffffff1690602001909190803573ffffffffffffffffffffffffffffffffffffffff169060200190919080359060200190919050506107bd565b604051808215151515815260200191505060405180910390f35b34156102b857600080fd5b6102c0610b77565b6040518082815260200191505060405180910390f35b34156102e157600080fd5b6102e9610b7d565b604051808263ffffffff1663ffffffff16815260200191505060405180910390f35b341561031657600080fd5b61034b600480803573ffffffffffffffffffffffffffffffffffffffff16906020019091908035906020019091905050610b82565b604051808215151515815260200191505060405180910390f35b341561037057600080fd5b6103a5600480803573ffffffffffffffffffffffffffffffffffffffff16906020019091908035906020019091905050610d68565b604051808215151515815260200191505060405180910390f35b34156103ca57600080fd5b6103f6600480803573ffffffffffffffffffffffffffffffffffffffff16906020019091905050610ff9565b6040518082815260200191505060405180910390f35b341561041757600080fd5b61041f611041565b604051808215151515815260200191505060405180910390f35b341561044457600080fd5b61044c611109565b604051808273ffffffffffffffffffffffffffffffffffffffff1673ffffffffffffffffffffffffffffffffffffffff16815260200191505060405180910390f35b341561049957600080fd5b6104a161112f565b6040518080602001828103825283818151815260200191508051906020019080838360005b838110156104e15780820151818401526020810190506104c6565b50505050905090810190601f16801561050e5780820380516001836020036101000a031916815260200191505b509250505060405180910390f35b341561052757600080fd5b61055c600480803573ffffffffffffffffffffffffffffffffffffffff16906020019091908035906020019091905050611168565b604051808215151515815260200191505060405180910390f35b341561058157600080fd5b6105b6600480803573ffffffffffffffffffffffffffffffffffffffff16906020019091908035906020019091905050611387565b604051808215151515815260200191505060405180910390f35b34156105db57600080fd5b610626600480803573ffffffffffffffffffffffffffffffffffffffff1690602001909190803573ffffffffffffffffffffffffffffffffffffffff16906020019091905050611583565b6040518082815260200191505060405180910390f35b341561064757600080fd5b610673600480803573ffffffffffffffffffffffffffffffffffffffff1690602001909190505061160a565b005b600360149054906101000a900460ff1681565b6040805190810160405280601081526020017f41525f5574696c6974795f546f6b656e0000000000000000000000000000000081525081565b600081600260003373ffffffffffffffffffffffffffffffffffffffff1673ffffffffffffffffffffffffffffffffffffffff16815260200190815260200160002060008573ffffffffffffffffffffffffffffffffffffffff1673ffffffffffffffffffffffffffffffffffffffff168152602001908152602001600020819055508273ffffffffffffffffffffffffffffffffffffffff163373ffffffffffffffffffffffffffffffffffffffff167f8c5be1e5ebec7d5bd14f71427d1e84f3dd0314c0f7b2291e5b200ac8c7c3b925846040518082815260200191505060405180910390a36001905092915050565b6000600154905090565b60008073ffffffffffffffffffffffffffffffffffffffff168373ffffffffffffffffffffffffffffffffffffffff16141515156107fa57600080fd5b6000808573ffffffffffffffffffffffffffffffffffffffff1673ffffffffffffffffffffffffffffffffffffffff16815260200190815260200160002054821115151561084757600080fd5b600260008573ffffffffffffffffffffffffffffffffffffffff1673ffffffffffffffffffffffffffffffffffffffff16815260200190815260200160002060003373ffffffffffffffffffffffffffffffffffffffff1673ffffffffffffffffffffffffffffffffffffffff1681526020019081526020016000205482111515156108d257600080fd5b610923826000808773ffffffffffffffffffffffffffffffffffffffff1673ffffffffffffffffffffffffffffffffffffffff1681526020019081526020016000205461176290919063ffffffff16565b6000808673ffffffffffffffffffffffffffffffffffffffff1673ffffffffffffffffffffffffffffffffffffffff168152602001908152602001600020819055506109b6826000808673ffffffffffffffffffffffffffffffffffffffff1673ffffffffffffffffffffffffffffffffffffffff1681526020019081526020016000205461177b90919063ffffffff16565b6000808573ffffffffffffffffffffffffffffffffffffffff1673ffffffffffffffffffffffffffffffffffffffff16815260200190815260200160002081905550610a8782600260008773ffffffffffffffffffffffffffffffffffffffff1673ffffffffffffffffffffffffffffffffffffffff16815260200190815260200160002060003373ffffffffffffffffffffffffffffffffffffffff1673ffffffffffffffffffffffffffffffffffffffff1681526020019081526020016000205461176290919063ffffffff16565b600260008673ffffffffffffffffffffffffffffffffffffffff1673ffffffffffffffffffffffffffffffffffffffff16815260200190815260200160002060003373ffffffffffffffffffffffffffffffffffffffff1673ffffffffffffffffffffffffffffffffffffffff168152602001908152602001600020819055508273ffffffffffffffffffffffffffffffffffffffff168473ffffffffffffffffffffffffffffffffffffffff167fddf252ad1be2c89b69c2b068fc378daa952ba7f163c4a11628f55a4df523b3ef846040518082815260200191505060405180910390a3600190509392505050565b60045481565b600081565b6000600360009054906101000a900473ffffffffffffffffffffffffffffffffffffffff1673ffffffffffffffffffffffffffffffffffffffff163373ffffffffffffffffffffffffffffffffffffffff16141515610be057600080fd5b600360149054906101000a900460ff16151515610bfc57600080fd5b610c118260015461177b90919063ffffffff16565b600181905550610c68826000808673ffffffffffffffffffffffffffffffffffffffff1673ffffffffffffffffffffffffffffffffffffffff1681526020019081526020016000205461177b90919063ffffffff16565b6000808573ffffffffffffffffffffffffffffffffffffffff1673ffffffffffffffffffffffffffffffffffffffff168152602001908152602001600020819055508273ffffffffffffffffffffffffffffffffffffffff167f0f6798a560793a54c3bcfe86a93cde1e73087d944c0ea20544137d4121396885836040518082815260200191505060405180910390a28273ffffffffffffffffffffffffffffffffffffffff16600073ffffffffffffffffffffffffffffffffffffffff167fddf252ad1be2c89b69c2b068fc378daa952ba7f163c4a11628f55a4df523b3ef846040518082815260200191505060405180910390a36001905092915050565b600080600260003373ffffffffffffffffffffffffffffffffffffffff1673ffffffffffffffffffffffffffffffffffffffff16815260200190815260200160002060008573ffffffffffffffffffffffffffffffffffffffff1673ffffffffffffffffffffffffffffffffffffffff16815260200190815260200160002054905080831115610e79576000600260003373ffffffffffffffffffffffffffffffffffffffff1673ffffffffffffffffffffffffffffffffffffffff16815260200190815260200160002060008673ffffffffffffffffffffffffffffffffffffffff1673ffffffffffffffffffffffffffffffffffffffff16815260200190815260200160002081905550610f0d565b610e8c838261176290919063ffffffff16565b600260003373ffffffffffffffffffffffffffffffffffffffff1673ffffffffffffffffffffffffffffffffffffffff16815260200190815260200160002060008673ffffffffffffffffffffffffffffffffffffffff1673ffffffffffffffffffffffffffffffffffffffff168152602001908152602001600020819055505b8373ffffffffffffffffffffffffffffffffffffffff163373ffffffffffffffffffffffffffffffffffffffff167f8c5be1e5ebec7d5bd14f71427d1e84f3dd0314c0f7b2291e5b200ac8c7c3b925600260003373ffffffffffffffffffffffffffffffffffffffff1673ffffffffffffffffffffffffffffffffffffffff16815260200190815260200160002060008873ffffffffffffffffffffffffffffffffffffffff1673ffffffffffffffffffffffffffffffffffffffff168152602001908152602001600020546040518082815260200191505060405180910390a3600191505092915050565b60008060008373ffffffffffffffffffffffffffffffffffffffff1673ffffffffffffffffffffffffffffffffffffffff168152602001908152602001600020549050919050565b6000600360009054906101000a900473ffffffffffffffffffffffffffffffffffffffff1673ffffffffffffffffffffffffffffffffffffffff163373ffffffffffffffffffffffffffffffffffffffff1614151561109f57600080fd5b600360149054906101000a900460ff161515156110bb57600080fd5b6001600360146101000a81548160ff0219169083151502179055507fae5184fba832cb2b1f702aca6117b8d265eaf03ad33eb133f19dde0f5920fa0860405160405180910390a16001905090565b600360009054906101000a900473ffffffffffffffffffffffffffffffffffffffff1681565b6040805190810160405280600281526020017f415200000000000000000000000000000000000000000000000000000000000081525081565b60008073ffffffffffffffffffffffffffffffffffffffff168373ffffffffffffffffffffffffffffffffffffffff16141515156111a557600080fd5b6000803373ffffffffffffffffffffffffffffffffffffffff1673ffffffffffffffffffffffffffffffffffffffff1681526020019081526020016000205482111515156111f257600080fd5b611243826000803373ffffffffffffffffffffffffffffffffffffffff1673ffffffffffffffffffffffffffffffffffffffff1681526020019081526020016000205461176290919063ffffffff16565b6000803373ffffffffffffffffffffffffffffffffffffffff1673ffffffffffffffffffffffffffffffffffffffff168152602001908152602001600020819055506112d6826000808673ffffffffffffffffffffffffffffffffffffffff1673ffffffffffffffffffffffffffffffffffffffff1681526020019081526020016000205461177b90919063ffffffff16565b6000808573ffffffffffffffffffffffffffffffffffffffff1673ffffffffffffffffffffffffffffffffffffffff168152602001908152602001600020819055508273ffffffffffffffffffffffffffffffffffffffff163373ffffffffffffffffffffffffffffffffffffffff167fddf252ad1be2c89b69c2b068fc378daa952ba7f163c4a11628f55a4df523b3ef846040518082815260200191505060405180910390a36001905092915050565b600061141882600260003373ffffffffffffffffffffffffffffffffffffffff1673ffffffffffffffffffffffffffffffffffffffff16815260200190815260200160002060008673ffffffffffffffffffffffffffffffffffffffff1673ffffffffffffffffffffffffffffffffffffffff1681526020019081526020016000205461177b90919063ffffffff16565b600260003373ffffffffffffffffffffffffffffffffffffffff1673ffffffffffffffffffffffffffffffffffffffff16815260200190815260200160002060008573ffffffffffffffffffffffffffffffffffffffff1673ffffffffffffffffffffffffffffffffffffffff168152602001908152602001600020819055508273ffffffffffffffffffffffffffffffffffffffff163373ffffffffffffffffffffffffffffffffffffffff167f8c5be1e5ebec7d5bd14f71427d1e84f3dd0314c0f7b2291e5b200ac8c7c3b925600260003373ffffffffffffffffffffffffffffffffffffffff1673ffffffffffffffffffffffffffffffffffffffff16815260200190815260200160002060008773ffffffffffffffffffffffffffffffffffffffff1673ffffffffffffffffffffffffffffffffffffffff168152602001908152602001600020546040518082815260200191505060405180910390a36001905092915050565b6000600260008473ffffffffffffffffffffffffffffffffffffffff1673ffffffffffffffffffffffffffffffffffffffff16815260200190815260200160002060008373ffffffffffffffffffffffffffffffffffffffff1673ffffffffffffffffffffffffffffffffffffffff16815260200190815260200160002054905092915050565b600360009054906101000a900473ffffffffffffffffffffffffffffffffffffffff1673ffffffffffffffffffffffffffffffffffffffff163373ffffffffffffffffffffffffffffffffffffffff1614151561166657600080fd5b600073ffffffffffffffffffffffffffffffffffffffff168173ffffffffffffffffffffffffffffffffffffffff16141515156116a257600080fd5b8073ffffffffffffffffffffffffffffffffffffffff16600360009054906101000a900473ffffffffffffffffffffffffffffffffffffffff1673ffffffffffffffffffffffffffffffffffffffff167f8be0079c531659141344cd1fd0a4f28419497f9722a3daafe3b4186f6b6457e060405160405180910390a380600360006101000a81548173ffffffffffffffffffffffffffffffffffffffff021916908373ffffffffffffffffffffffffffffffffffffffff16021790555050565b600082821115151561177057fe5b818303905092915050565b600080828401905083811015151561178f57fe5b80915050929150505600a165627a7a723058205a111627171da2766ba25ac30ecebfd393fa4f9d6b3cf85cb610f73b50fde47e00296060604052341561000f57600080fd5b604051602080610a7783398101604052808051906020019091905050336000806101000a81548173ffffffffffffffffffffffffffffffffffffffff021916908373ffffffffffffffffffffffffffffffffffffffff160217905550600073ffffffffffffffffffffffffffffffffffffffff168173ffffffffffffffffffffffffffffffffffffffff16141515156100a757600080fd5b80600260006101000a81548173ffffffffffffffffffffffffffffffffffffffff021916908373ffffffffffffffffffffffffffffffffffffffff1602179055506000600260146101000a81548160ff0219169083600281111561010757fe5b02179055505061095b8061011c6000396000f300606060405260043610610099576000357c0100000000000000000000000000000000000000000000000000000000900463ffffffff16806343d726d61461009e578063521eb273146100b35780638c52dc41146101085780638da5cb5b1461011d578063c19d93fb14610172578063cb13cddb146101a9578063f2fde38b146101f6578063f340fa011461022f578063fa89401a1461025d575b600080fd5b34156100a957600080fd5b6100b1610296565b005b34156100be57600080fd5b6100c66103ef565b604051808273ffffffffffffffffffffffffffffffffffffffff1673ffffffffffffffffffffffffffffffffffffffff16815260200191505060405180910390f35b341561011357600080fd5b61011b610415565b005b341561012857600080fd5b6101306104f6565b604051808273ffffffffffffffffffffffffffffffffffffffff1673ffffffffffffffffffffffffffffffffffffffff16815260200191505060405180910390f35b341561017d57600080fd5b61018561051b565b6040518082600281111561019557fe5b60ff16815260200191505060405180910390f35b34156101b457600080fd5b6101e0600480803573ffffffffffffffffffffffffffffffffffffffff1690602001909190505061052e565b6040518082815260200191505060405180910390f35b341561020157600080fd5b61022d600480803573ffffffffffffffffffffffffffffffffffffffff16906020019091905050610546565b005b61025b600480803573ffffffffffffffffffffffffffffffffffffffff1690602001909190505061069b565b005b341561026857600080fd5b610294600480803573ffffffffffffffffffffffffffffffffffffffff169060200190919050506107c2565b005b6000809054906101000a900473ffffffffffffffffffffffffffffffffffffffff1673ffffffffffffffffffffffffffffffffffffffff163373ffffffffffffffffffffffffffffffffffffffff161415156102f157600080fd5b600060028111156102fe57fe5b600260149054906101000a900460ff16600281111561031957fe5b14151561032557600080fd5b60028060146101000a81548160ff0219169083600281111561034357fe5b02179055507f1cdde67b72a90f19919ac732a437ac2f7a10fc128d28c2a6e525d89ce5cd9d3a60405160405180910390a1600260009054906101000a900473ffffffffffffffffffffffffffffffffffffffff1673ffffffffffffffffffffffffffffffffffffffff166108fc3073ffffffffffffffffffffffffffffffffffffffff16319081150290604051600060405180830381858888f1935050505015156103ed57600080fd5b565b600260009054906101000a900473ffffffffffffffffffffffffffffffffffffffff1681565b6000809054906101000a900473ffffffffffffffffffffffffffffffffffffffff1673ffffffffffffffffffffffffffffffffffffffff163373ffffffffffffffffffffffffffffffffffffffff1614151561047057600080fd5b6000600281111561047d57fe5b600260149054906101000a900460ff16600281111561049857fe5b1415156104a457600080fd5b6001600260146101000a81548160ff021916908360028111156104c357fe5b02179055507f599d8e5a83cffb867d051598c4d70e805d59802d8081c1c7d6dffc5b6aca2b8960405160405180910390a1565b6000809054906101000a900473ffffffffffffffffffffffffffffffffffffffff1681565b600260149054906101000a900460ff1681565b60016020528060005260406000206000915090505481565b6000809054906101000a900473ffffffffffffffffffffffffffffffffffffffff1673ffffffffffffffffffffffffffffffffffffffff163373ffffffffffffffffffffffffffffffffffffffff161415156105a157600080fd5b600073ffffffffffffffffffffffffffffffffffffffff168173ffffffffffffffffffffffffffffffffffffffff16141515156105dd57600080fd5b8073ffffffffffffffffffffffffffffffffffffffff166000809054906101000a900473ffffffffffffffffffffffffffffffffffffffff1673ffffffffffffffffffffffffffffffffffffffff167f8be0079c531659141344cd1fd0a4f28419497f9722a3daafe3b4186f6b6457e060405160405180910390a3806000806101000a81548173ffffffffffffffffffffffffffffffffffffffff021916908373ffffffffffffffffffffffffffffffffffffffff16021790555050565b6000809054906101000a900473ffffffffffffffffffffffffffffffffffffffff1673ffffffffffffffffffffffffffffffffffffffff163373ffffffffffffffffffffffffffffffffffffffff161415156106f657600080fd5b6000600281111561070357fe5b600260149054906101000a900460ff16600281111561071e57fe5b14151561072a57600080fd5b61077c34600160008473ffffffffffffffffffffffffffffffffffffffff1673ffffffffffffffffffffffffffffffffffffffff1681526020019081526020016000205461091190919063ffffffff16565b600160008373ffffffffffffffffffffffffffffffffffffffff1673ffffffffffffffffffffffffffffffffffffffff1681526020019081526020016000208190555050565b6000600160028111156107d157fe5b600260149054906101000a900460ff1660028111156107ec57fe5b1415156107f857600080fd5b600160008373ffffffffffffffffffffffffffffffffffffffff1673ffffffffffffffffffffffffffffffffffffffff1681526020019081526020016000205490506000600160008473ffffffffffffffffffffffffffffffffffffffff1673ffffffffffffffffffffffffffffffffffffffff168152602001908152602001600020819055508173ffffffffffffffffffffffffffffffffffffffff166108fc829081150290604051600060405180830381858888f1935050505015156108bf57600080fd5b8173ffffffffffffffffffffffffffffffffffffffff167fd7dee2702d63ad89917b6a4da9981c90c4d24f8c2bdfd64c604ecae57d8d0651826040518082815260200191505060405180910390a25050565b600080828401905083811015151561092557fe5b80915050929150505600a165627a7a7230582063670ec9efa34decbff8a8f682e4c7a445946bd42b81f30db12c99317b678d300029",
  "source": "pragma solidity ^0.4.18;\r\n\r\n//import 'github.com/OpenZeppelin/zeppelin-solidity/contracts/crowdsale/validation/CappedCrowdsale.sol';\r\n//import 'github.com/OpenZeppelin/zeppelin-solidity/contracts/token/ERC20/MintableToken.sol';\r\n//import 'github.com/OpenZeppelin/zeppelin-solidity/contracts/crowdsale/distribution/RefundableCrowdsale.sol';\r\n\r\nimport 'zeppelin-solidity/contracts/crowdsale/validation/CappedCrowdsale.sol';\r\nimport 'zeppelin-solidity/contracts/crowdsale/distribution/RefundableCrowdsale.sol';\r\nimport \"zeppelin-solidity/contracts/token/ERC20/MintableToken.sol\";\r\nimport './MyTokenCoin.sol';\r\ncontract MySmartContract is CappedCrowdsale, RefundableCrowdsale {\r\n\r\n    mapping(address => uint) public balances;\r\n\r\n    uint public startTime;\r\n    uint public period;\r\n    uint256 endTime ;\r\n    uint256 rate;\r\n    address wallet ;\r\n    bool isFinalized;\r\n    bool public initialized = false;\r\n    MintableToken token = new MyTokenCoin();\r\n\r\n    enum CrowdsaleStage { PreICO, ICO }\r\n    CrowdsaleStage public stage = CrowdsaleStage.PreICO;\r\n    // =============\r\n\r\n    // ARGO Token Distribution\r\n    // =============================\r\n    uint256 public maxTokens = 586200000; // There will be total 586,2 mln  Tokens\r\n    uint256 public tokensForEcosystem = 11500000;//11,5 mln promotional reserves to early users and investors;\r\n    uint256 public tokensForTeam = 91900000;//91,9 mln for the team\r\n    uint256 public tokensForBounty = 57500000; // 57,5 mln\r\n    uint256 public totalTokensForSale = 402300000; // 402,300,000 will be sold in Crowdsale\r\n    uint256 public totalTokensForSaleDuringPreICO = 33200000; // 33,200,000 out of 586,2 mln ARGO will be sold during PreICO\r\n    // ==============================\r\n\r\n    // Amount Wei raised in PreICO\r\n    // ==================\r\n    uint256 public totalWeiRaisedDuringPreICO =0;\r\n    // ===================\r\n\r\n    // Events\r\n    event EthTransferred(string text);\r\n    event EthRefunded(string text);\r\n    event BoughtTokens(address indexed to, uint256 value);\r\n\r\n    modifier whenSaleIsActive() {\r\n        // Check if sale is active\r\n        assert(isActive());\r\n        _;\r\n    }\r\n\r\n    function initialize() public onlyOwner {\r\n        require(initialized == false); // Can only be initialized once\r\n        initialized = true;\r\n    }\r\n    // Constructor\r\n    // ============\r\n    function MySmartContract(uint256 _openingTime, uint256 _closingTime, uint256 _rate, address _wallet, uint256 _goal, uint256 _cap)\r\n        CappedCrowdsale(_cap)\r\n        FinalizableCrowdsale()\r\n        RefundableCrowdsale(_goal)\r\n        TimedCrowdsale(_openingTime, _closingTime)\r\n        Crowdsale(_rate, _wallet, token) public\r\n    {\r\n\r\n        startTime = _openingTime;\r\n        endTime = _closingTime;\r\n        rate = _rate;\r\n        setCrowdsaleStage(CrowdsaleStage.PreICO);\r\n        isFinalized = false;\r\n\r\n    }\r\n\r\n    function setCurrentRate(uint256 _rate) private {\r\n        rate = _rate;\r\n    }\r\n    // Change Crowdsale Stage. Available : PreICO, ICO\r\n    function setCrowdsaleStage(CrowdsaleStage _stage) public onlyOwner {\r\n\r\n        stage = _stage;\r\n        if (stage == CrowdsaleStage.PreICO) {\r\n            setCurrentRate((uint256)(1 ether)/16000000000000);\r\n        } else if (stage == CrowdsaleStage.ICO) {\r\n            setCurrentRate((uint256)(1 ether)/23000000000000);\r\n        }\r\n    }\r\n    // Override to indicate when the crowdsale ends and does not accept any more contributions\r\n    // Checks endTime by default, plus cap from CappedCrowdsale\r\n    function isActive() public returns (bool) {\r\n        return ((now < endTime) && (goalReached() == false) && (now > startTime));\r\n    }\r\n\r\n    // Token Purchase\r\n    // =========================\r\n/*    function buyTokens() external payable whenSaleIsActive{\r\n\r\n        uint tokensThatWillBeMintedAfterPurchase = getTokenAmount(msg.value);\r\n\r\n        if ((token.totalSupply() + tokensThatWillBeMintedAfterPurchase > totalTokensForSaleDuringPreICO))\r\n        {\r\n            msg.sender.transfer(msg.value); // Check for MaxTokenLimit & Refund them\r\n            EthRefunded(\"PreICO MAX Tokens Amount Reached\");\r\n            return;\r\n        }\r\n        balances[this] -= tokensThatWillBeMintedAfterPurchase;\r\n        balances[msg.sender] = balances[msg.sender].add(msg.value);\r\n        BoughtTokens(msg.sender, tokensThatWillBeMintedAfterPurchase);\r\n        buyTokens(msg.sender);\r\n        forwardFunds();\r\n        totalWeiRaisedDuringPreICO = totalWeiRaisedDuringPreICO.add(msg.value);\r\n\r\n    }\r\n*/\r\n\r\n    function _getTokenAmount(uint256 weiAmount) internal view returns(uint256) {\r\n        uint256 tokensThatWillBeMintedAfterPurchase = rate.mul(weiAmount);\r\n        uint bonusTokens = 0;\r\n        if (stage == CrowdsaleStage.PreICO) {\r\n\r\n            if(now <= startTime + (2 days)) {\r\n                bonusTokens = tokensThatWillBeMintedAfterPurchase.div(100).mul(50);\r\n            } else if(now >= startTime + 3 days && now < startTime + 4 days) {\r\n                bonusTokens = tokensThatWillBeMintedAfterPurchase.div(100).mul(40);\r\n            } else if(now >= startTime + 5 days && now < startTime + 6 days) {\r\n                bonusTokens = tokensThatWillBeMintedAfterPurchase.div(100).mul(30);\r\n            } else if(now >= startTime + 7 days && now < startTime + 8 days) {\r\n                bonusTokens = tokensThatWillBeMintedAfterPurchase.div(100).mul(20);\r\n            }\r\n        }\r\n        return tokensThatWillBeMintedAfterPurchase.add(bonusTokens);\r\n    }\r\n\r\n    // Override to execute any logic once the crowdsale finalizes\r\n    // Requires a call to the public finalize method, only after the sale hasEnded\r\n    // Remember that super.finalization() calls the token finishMinting(),\r\n    // so no new tokens can be minted after that\r\n    function finalization() internal {\r\n\r\n        super.finalization();\r\n    }\r\n\r\n    function finish(address _teamFund, address _ecosystemFund, address _bountyFund) public onlyOwner {\r\n        require(!isFinalized);\r\n        uint256 alreadyMinted = token.totalSupply();\r\n        require(alreadyMinted < maxTokens);\r\n\r\n        uint256 unsoldTokens = totalTokensForSale - alreadyMinted;\r\n        if (unsoldTokens > 0) {\r\n            tokensForEcosystem = tokensForEcosystem + unsoldTokens;\r\n        }\r\n        token.transfer(_teamFund,tokensForTeam);\r\n        token.transfer(_ecosystemFund,tokensForEcosystem);\r\n        token.transfer(_bountyFund,tokensForBounty);\r\n        finalize();\r\n    }\r\n\r\n}",
  "sourcePath": "C:\\www\\sol1\\contracts\\MySmartContract.sol",
  "compiler": {
    "name": "solc",
    "version": "0.4.19+commit.c4cbbb05.Emscripten.clang"
  },
  "schemaVersion": "2.0.0",
  "updatedAt": "2018-03-16T19:41:06.523Z"
}